{
  "_format": "hh-sol-artifact-1",
  "contractName": "IotexApiGatewayBadge",
  "sourceName": "contracts/IotexApiGatewayBadge.sol",
  "abi": [
    {
      "inputs": [],
      "stateMutability": "nonpayable",
      "type": "constructor"
    },
    {
      "anonymous": false,
      "inputs": [
        {
          "indexed": true,
          "internalType": "address",
          "name": "owner",
          "type": "address"
        },
        {
          "indexed": true,
          "internalType": "address",
          "name": "approved",
          "type": "address"
        },
        {
          "indexed": true,
          "internalType": "uint256",
          "name": "tokenId",
          "type": "uint256"
        }
      ],
      "name": "Approval",
      "type": "event"
    },
    {
      "anonymous": false,
      "inputs": [
        {
          "indexed": true,
          "internalType": "address",
          "name": "owner",
          "type": "address"
        },
        {
          "indexed": true,
          "internalType": "address",
          "name": "operator",
          "type": "address"
        },
        {
          "indexed": false,
          "internalType": "bool",
          "name": "approved",
          "type": "bool"
        }
      ],
      "name": "ApprovalForAll",
      "type": "event"
    },
    {
      "anonymous": false,
      "inputs": [
        {
          "indexed": true,
          "internalType": "address",
          "name": "previousOwner",
          "type": "address"
        },
        {
          "indexed": true,
          "internalType": "address",
          "name": "newOwner",
          "type": "address"
        }
      ],
      "name": "OwnershipTransferred",
      "type": "event"
    },
    {
      "anonymous": false,
      "inputs": [
        {
          "indexed": true,
          "internalType": "address",
          "name": "from",
          "type": "address"
        },
        {
          "indexed": true,
          "internalType": "address",
          "name": "to",
          "type": "address"
        },
        {
          "indexed": true,
          "internalType": "uint256",
          "name": "tokenId",
          "type": "uint256"
        }
      ],
      "name": "Transfer",
      "type": "event"
    },
    {
      "inputs": [
        {
          "internalType": "address",
          "name": "to",
          "type": "address"
        },
        {
          "internalType": "uint256",
          "name": "tokenId",
          "type": "uint256"
        }
      ],
      "name": "approve",
      "outputs": [],
      "stateMutability": "nonpayable",
      "type": "function"
    },
    {
      "inputs": [
        {
          "internalType": "address",
          "name": "owner",
          "type": "address"
        }
      ],
      "name": "balanceOf",
      "outputs": [
        {
          "internalType": "uint256",
          "name": "",
          "type": "uint256"
        }
      ],
      "stateMutability": "view",
      "type": "function"
    },
    {
      "inputs": [
        {
          "internalType": "uint256",
          "name": "tokenId",
          "type": "uint256"
        }
      ],
      "name": "getApproved",
      "outputs": [
        {
          "internalType": "address",
          "name": "",
          "type": "address"
        }
      ],
      "stateMutability": "view",
      "type": "function"
    },
    {
      "inputs": [],
      "name": "getDetails",
      "outputs": [
        {
          "internalType": "uint256",
          "name": "",
          "type": "uint256"
        }
      ],
      "stateMutability": "view",
      "type": "function"
    },
    {
      "inputs": [
        {
          "internalType": "string[]",
          "name": "nodeAddresses",
          "type": "string[]"
        }
      ],
      "name": "getNodeBadges",
      "outputs": [
        {
          "components": [
            {
              "internalType": "uint256",
              "name": "tokenId",
              "type": "uint256"
            },
            {
              "internalType": "string",
              "name": "badgeType",
              "type": "string"
            }
          ],
          "internalType": "struct IotexApiGatewayBadge.BadgeDetail[][]",
          "name": "",
          "type": "tuple[][]"
        }
      ],
      "stateMutability": "view",
      "type": "function"
    },
    {
      "inputs": [
        {
          "internalType": "address",
          "name": "owner",
          "type": "address"
        },
        {
          "internalType": "address",
          "name": "operator",
          "type": "address"
        }
      ],
      "name": "isApprovedForAll",
      "outputs": [
        {
          "internalType": "bool",
          "name": "",
          "type": "bool"
        }
      ],
      "stateMutability": "view",
      "type": "function"
    },
    {
      "inputs": [
        {
          "internalType": "string",
          "name": "badgeKeyMaping",
          "type": "string"
        },
        {
          "internalType": "address",
          "name": "userAddress",
          "type": "address"
        },
        {
          "internalType": "string",
          "name": "nodeAddress",
          "type": "string"
        }
      ],
      "name": "mintBadge",
      "outputs": [],
      "stateMutability": "nonpayable",
      "type": "function"
    },
    {
      "inputs": [],
      "name": "name",
      "outputs": [
        {
          "internalType": "string",
          "name": "",
          "type": "string"
        }
      ],
      "stateMutability": "view",
      "type": "function"
    },
    {
      "inputs": [],
      "name": "owner",
      "outputs": [
        {
          "internalType": "address",
          "name": "",
          "type": "address"
        }
      ],
      "stateMutability": "view",
      "type": "function"
    },
    {
      "inputs": [
        {
          "internalType": "uint256",
          "name": "tokenId",
          "type": "uint256"
        }
      ],
      "name": "ownerOf",
      "outputs": [
        {
          "internalType": "address",
          "name": "",
          "type": "address"
        }
      ],
      "stateMutability": "view",
      "type": "function"
    },
    {
      "inputs": [],
      "name": "renounceOwnership",
      "outputs": [],
      "stateMutability": "nonpayable",
      "type": "function"
    },
    {
      "inputs": [
        {
          "internalType": "address",
          "name": "from",
          "type": "address"
        },
        {
          "internalType": "address",
          "name": "to",
          "type": "address"
        },
        {
          "internalType": "uint256",
          "name": "tokenId",
          "type": "uint256"
        }
      ],
      "name": "safeTransferFrom",
      "outputs": [],
      "stateMutability": "nonpayable",
      "type": "function"
    },
    {
      "inputs": [
        {
          "internalType": "address",
          "name": "from",
          "type": "address"
        },
        {
          "internalType": "address",
          "name": "to",
          "type": "address"
        },
        {
          "internalType": "uint256",
          "name": "tokenId",
          "type": "uint256"
        },
        {
          "internalType": "bytes",
          "name": "_data",
          "type": "bytes"
        }
      ],
      "name": "safeTransferFrom",
      "outputs": [],
      "stateMutability": "nonpayable",
      "type": "function"
    },
    {
      "inputs": [
        {
          "internalType": "address",
          "name": "operator",
          "type": "address"
        },
        {
          "internalType": "bool",
          "name": "approved",
          "type": "bool"
        }
      ],
      "name": "setApprovalForAll",
      "outputs": [],
      "stateMutability": "nonpayable",
      "type": "function"
    },
    {
      "inputs": [
        {
          "internalType": "bytes4",
          "name": "interfaceId",
          "type": "bytes4"
        }
      ],
      "name": "supportsInterface",
      "outputs": [
        {
          "internalType": "bool",
          "name": "",
          "type": "bool"
        }
      ],
      "stateMutability": "view",
      "type": "function"
    },
    {
      "inputs": [],
      "name": "symbol",
      "outputs": [
        {
          "internalType": "string",
          "name": "",
          "type": "string"
        }
      ],
      "stateMutability": "view",
      "type": "function"
    },
    {
      "inputs": [
        {
          "internalType": "uint256",
          "name": "index",
          "type": "uint256"
        }
      ],
      "name": "tokenByIndex",
      "outputs": [
        {
          "internalType": "uint256",
          "name": "",
          "type": "uint256"
        }
      ],
      "stateMutability": "view",
      "type": "function"
    },
    {
      "inputs": [
        {
          "internalType": "address",
          "name": "owner",
          "type": "address"
        },
        {
          "internalType": "uint256",
          "name": "index",
          "type": "uint256"
        }
      ],
      "name": "tokenOfOwnerByIndex",
      "outputs": [
        {
          "internalType": "uint256",
          "name": "",
          "type": "uint256"
        }
      ],
      "stateMutability": "view",
      "type": "function"
    },
    {
      "inputs": [
        {
          "internalType": "uint256",
          "name": "tokenId",
          "type": "uint256"
        }
      ],
      "name": "tokenURI",
      "outputs": [
        {
          "internalType": "string",
          "name": "",
          "type": "string"
        }
      ],
      "stateMutability": "view",
      "type": "function"
    },
    {
      "inputs": [],
      "name": "totalSupply",
      "outputs": [
        {
          "internalType": "uint256",
          "name": "",
          "type": "uint256"
        }
      ],
      "stateMutability": "view",
      "type": "function"
    },
    {
      "inputs": [
        {
          "internalType": "address",
          "name": "from",
          "type": "address"
        },
        {
          "internalType": "address",
          "name": "to",
          "type": "address"
        },
        {
          "internalType": "uint256",
          "name": "tokenId",
          "type": "uint256"
        }
      ],
      "name": "transferFrom",
      "outputs": [],
      "stateMutability": "nonpayable",
      "type": "function"
    },
    {
      "inputs": [
        {
          "internalType": "address",
          "name": "newOwner",
          "type": "address"
        }
      ],
      "name": "transferOwnership",
      "outputs": [],
      "stateMutability": "nonpayable",
      "type": "function"
    }
  ],
  "bytecode": "0x60806040523480156200001157600080fd5b506040518060400160405280601781526020017f496f7465782041706920476174657761792042616467650000000000000000008152506040518060400160405280600481526020017f49414742000000000000000000000000000000000000000000000000000000008152506200009e62000092620000d860201b60201c565b620000e060201b60201c565b8160019080519060200190620000b6929190620001a4565b508060029080519060200190620000cf929190620001a4565b505050620002b9565b600033905090565b60008060009054906101000a900473ffffffffffffffffffffffffffffffffffffffff169050816000806101000a81548173ffffffffffffffffffffffffffffffffffffffff021916908373ffffffffffffffffffffffffffffffffffffffff1602179055508173ffffffffffffffffffffffffffffffffffffffff168173ffffffffffffffffffffffffffffffffffffffff167f8be0079c531659141344cd1fd0a4f28419497f9722a3daafe3b4186f6b6457e060405160405180910390a35050565b828054620001b29062000254565b90600052602060002090601f016020900481019282620001d6576000855562000222565b82601f10620001f157805160ff191683800117855562000222565b8280016001018555821562000222579182015b828111156200022157825182559160200191906001019062000204565b5b50905062000231919062000235565b5090565b5b808211156200025057600081600090555060010162000236565b5090565b600060028204905060018216806200026d57607f821691505b602082108114156200028457620002836200028a565b5b50919050565b7f4e487b7100000000000000000000000000000000000000000000000000000000600052602260045260246000fd5b613e7b80620002c96000396000f3fe608060405234801561001057600080fd5b50600436106101425760003560e01c8063715018a6116100b8578063b88d4fde1161007c578063b88d4fde14610375578063bc5ad7ef14610391578063c87b56dd146103c1578063e985e9c5146103f1578063f2fde38b14610421578063fbbf93a01461043d57610142565b8063715018a6146102f75780638da5cb5b1461030157806395d89b411461031f578063a22cb4651461033d578063aa8a74ae1461035957610142565b806323b872dd1161010a57806323b872dd146101ff5780632f745c591461021b57806342842e0e1461024b5780634f6ccce7146102675780636352211e1461029757806370a08231146102c757610142565b806301ffc9a71461014757806306fdde0314610177578063081812fc14610195578063095ea7b3146101c557806318160ddd146101e1575b600080fd5b610161600480360381019061015c9190612ac5565b61045b565b60405161016e919061367a565b60405180910390f35b61017f6104d5565b60405161018c9190613695565b60405180910390f35b6101af60048036038101906101aa9190612b96565b610567565b6040516101bc91906135f1565b60405180910390f35b6101df60048036038101906101da9190612a48565b6105ec565b005b6101e9610704565b6040516101f69190613917565b60405180910390f35b61021960048036038101906102149190612942565b610711565b005b61023560048036038101906102309190612a48565b610771565b6040516102429190613917565b60405180910390f35b61026560048036038101906102609190612942565b610816565b005b610281600480360381019061027c9190612b96565b610836565b60405161028e9190613917565b60405180910390f35b6102b160048036038101906102ac9190612b96565b6108cd565b6040516102be91906135f1565b60405180910390f35b6102e160048036038101906102dc91906128dd565b61097f565b6040516102ee9190613917565b60405180910390f35b6102ff610a37565b005b610309610abf565b60405161031691906135f1565b60405180910390f35b610327610ae8565b6040516103349190613695565b60405180910390f35b61035760048036038101906103529190612a0c565b610b7a565b005b610373600480360381019061036e9190612b17565b610cfb565b005b61038f600480360381019061038a9190612991565b610e03565b005b6103ab60048036038101906103a69190612a84565b610e65565b6040516103b89190613658565b60405180910390f35b6103db60048036038101906103d69190612b96565b6111f6565b6040516103e89190613695565b60405180910390f35b61040b60048036038101906104069190612906565b61129d565b604051610418919061367a565b60405180910390f35b61043b600480360381019061043691906128dd565b611331565b005b610445611429565b6040516104529190613917565b60405180910390f35b60007f780e9d63000000000000000000000000000000000000000000000000000000007bffffffffffffffffffffffffffffffffffffffffffffffffffffffff1916827bffffffffffffffffffffffffffffffffffffffffffffffffffffffff191614806104ce57506104cd8261143a565b5b9050919050565b6060600180546104e490613c70565b80601f016020809104026020016040519081016040528092919081815260200182805461051090613c70565b801561055d5780601f106105325761010080835404028352916020019161055d565b820191906000526020600020905b81548152906001019060200180831161054057829003601f168201915b5050505050905090565b60006105728261151c565b6105b1576040517f08c379a00000000000000000000000000000000000000000000000000000000081526004016105a890613837565b60405180910390fd5b6005600083815260200190815260200160002060009054906101000a900473ffffffffffffffffffffffffffffffffffffffff169050919050565b60006105f7826108cd565b90508073ffffffffffffffffffffffffffffffffffffffff168373ffffffffffffffffffffffffffffffffffffffff161415610668576040517f08c379a000000000000000000000000000000000000000000000000000000000815260040161065f906138b7565b60405180910390fd5b8073ffffffffffffffffffffffffffffffffffffffff16610687611588565b73ffffffffffffffffffffffffffffffffffffffff1614806106b657506106b5816106b0611588565b61129d565b5b6106f5576040517f08c379a00000000000000000000000000000000000000000000000000000000081526004016106ec906137b7565b60405180910390fd5b6106ff8383611590565b505050565b6000600980549050905090565b61072261071c611588565b82611649565b610761576040517f08c379a0000000000000000000000000000000000000000000000000000000008152600401610758906138d7565b60405180910390fd5b61076c838383611727565b505050565b600061077c8361097f565b82106107bd576040517f08c379a00000000000000000000000000000000000000000000000000000000081526004016107b4906136d7565b60405180910390fd5b600760008473ffffffffffffffffffffffffffffffffffffffff1673ffffffffffffffffffffffffffffffffffffffff168152602001908152602001600020600083815260200190815260200160002054905092915050565b61083183838360405180602001604052806000815250610e03565b505050565b6000610840610704565b8210610881576040517f08c379a0000000000000000000000000000000000000000000000000000000008152600401610878906138f7565b60405180910390fd5b600982815481106108bb577f4e487b7100000000000000000000000000000000000000000000000000000000600052603260045260246000fd5b90600052602060002001549050919050565b6000806003600084815260200190815260200160002060009054906101000a900473ffffffffffffffffffffffffffffffffffffffff169050600073ffffffffffffffffffffffffffffffffffffffff168173ffffffffffffffffffffffffffffffffffffffff161415610976576040517f08c379a000000000000000000000000000000000000000000000000000000000815260040161096d906137f7565b60405180910390fd5b80915050919050565b60008073ffffffffffffffffffffffffffffffffffffffff168273ffffffffffffffffffffffffffffffffffffffff1614156109f0576040517f08c379a00000000000000000000000000000000000000000000000000000000081526004016109e7906137d7565b60405180910390fd5b600460008373ffffffffffffffffffffffffffffffffffffffff1673ffffffffffffffffffffffffffffffffffffffff168152602001908152602001600020549050919050565b610a3f611588565b73ffffffffffffffffffffffffffffffffffffffff16610a5d610abf565b73ffffffffffffffffffffffffffffffffffffffff1614610ab3576040517f08c379a0000000000000000000000000000000000000000000000000000000008152600401610aaa90613857565b60405180910390fd5b610abd6000611983565b565b60008060009054906101000a900473ffffffffffffffffffffffffffffffffffffffff16905090565b606060028054610af790613c70565b80601f0160208091040260200160405190810160405280929190818152602001828054610b2390613c70565b8015610b705780601f10610b4557610100808354040283529160200191610b70565b820191906000526020600020905b815481529060010190602001808311610b5357829003601f168201915b5050505050905090565b610b82611588565b73ffffffffffffffffffffffffffffffffffffffff168273ffffffffffffffffffffffffffffffffffffffff161415610bf0576040517f08c379a0000000000000000000000000000000000000000000000000000000008152600401610be790613777565b60405180910390fd5b8060066000610bfd611588565b73ffffffffffffffffffffffffffffffffffffffff1673ffffffffffffffffffffffffffffffffffffffff16815260200190815260200160002060008473ffffffffffffffffffffffffffffffffffffffff1673ffffffffffffffffffffffffffffffffffffffff16815260200190815260200160002060006101000a81548160ff0219169083151502179055508173ffffffffffffffffffffffffffffffffffffffff16610caa611588565b73ffffffffffffffffffffffffffffffffffffffff167f17307eab39ab6107e8899845ad3d59bd9653f200f220920489ca2b5937696c3183604051610cef919061367a565b60405180910390a35050565b610d06838383611a47565b15610d46576040517f08c379a0000000000000000000000000000000000000000000000000000000008152600401610d3d906136b7565b60405180910390fd5b6000610d52600b611b30565b9050610d5e600b611b3e565b610d688382611b54565b83600c60008381526020019081526020016000209080519060200190610d8f929190612660565b5081600d60008381526020019081526020016000209080519060200190610db7929190612660565b50600e82604051610dc891906135b6565b908152602001604051809103902081908060018154018082558091505060019003906000526020600020016000909190919091505550505050565b610e14610e0e611588565b83611649565b610e53576040517f08c379a0000000000000000000000000000000000000000000000000000000008152600401610e4a906138d7565b60405180910390fd5b610e5f84848484611b72565b50505050565b60606000825167ffffffffffffffff811115610eaa577f4e487b7100000000000000000000000000000000000000000000000000000000600052604160045260246000fd5b604051908082528060200260200182016040528015610edd57816020015b6060815260200190600190039081610ec85790505b50905060005b83518110156111ec576000600e858381518110610f29577f4e487b7100000000000000000000000000000000000000000000000000000000600052603260045260246000fd5b6020026020010151604051610f3e91906135b6565b9081526020016040518091039020805480602002602001604051908101604052809291908181526020018280548015610f9657602002820191906000526020600020905b815481526020019060010190808311610f82575b505050505090506000815167ffffffffffffffff811115610fe0577f4e487b7100000000000000000000000000000000000000000000000000000000600052604160045260246000fd5b60405190808252806020026020018201604052801561101957816020015b6110066126e6565b815260200190600190039081610ffe5790505b5090506000825190505b600081111561119157600060018261103b9190613b5c565b90506000848281518110611078577f4e487b7100000000000000000000000000000000000000000000000000000000600052603260045260246000fd5b6020026020010151905060006040518060400160405280838152602001600c600085815260200190815260200160002080546110b390613c70565b80601f01602080910402602001604051908101604052809291908181526020018280546110df90613c70565b801561112c5780601f106111015761010080835404028352916020019161112c565b820191906000526020600020905b81548152906001019060200180831161110f57829003601f168201915b5050505050815250905080858481518110611170577f4e487b7100000000000000000000000000000000000000000000000000000000600052603260045260246000fd5b6020026020010181905250505050808061118990613c46565b915050611023565b50808484815181106111cc577f4e487b7100000000000000000000000000000000000000000000000000000000600052603260045260246000fd5b6020026020010181905250505080806111e490613ca2565b915050610ee3565b5080915050919050565b60606112018261151c565b611240576040517f08c379a000000000000000000000000000000000000000000000000000000000815260040161123790613897565b60405180910390fd5b600061124a611bce565b9050600081511161126a5760405180602001604052806000815250611295565b8061127484611be5565b6040516020016112859291906135cd565b6040516020818303038152906040525b915050919050565b6000600660008473ffffffffffffffffffffffffffffffffffffffff1673ffffffffffffffffffffffffffffffffffffffff16815260200190815260200160002060008373ffffffffffffffffffffffffffffffffffffffff1673ffffffffffffffffffffffffffffffffffffffff16815260200190815260200160002060009054906101000a900460ff16905092915050565b611339611588565b73ffffffffffffffffffffffffffffffffffffffff16611357610abf565b73ffffffffffffffffffffffffffffffffffffffff16146113ad576040517f08c379a00000000000000000000000000000000000000000000000000000000081526004016113a490613857565b60405180910390fd5b600073ffffffffffffffffffffffffffffffffffffffff168173ffffffffffffffffffffffffffffffffffffffff16141561141d576040517f08c379a000000000000000000000000000000000000000000000000000000000815260040161141490613717565b60405180910390fd5b61142681611983565b50565b6000611435600b611b30565b905090565b60007f80ac58cd000000000000000000000000000000000000000000000000000000007bffffffffffffffffffffffffffffffffffffffffffffffffffffffff1916827bffffffffffffffffffffffffffffffffffffffffffffffffffffffff1916148061150557507f5b5e139f000000000000000000000000000000000000000000000000000000007bffffffffffffffffffffffffffffffffffffffffffffffffffffffff1916827bffffffffffffffffffffffffffffffffffffffffffffffffffffffff1916145b80611515575061151482611d92565b5b9050919050565b60008073ffffffffffffffffffffffffffffffffffffffff166003600084815260200190815260200160002060009054906101000a900473ffffffffffffffffffffffffffffffffffffffff1673ffffffffffffffffffffffffffffffffffffffff1614159050919050565b600033905090565b816005600083815260200190815260200160002060006101000a81548173ffffffffffffffffffffffffffffffffffffffff021916908373ffffffffffffffffffffffffffffffffffffffff160217905550808273ffffffffffffffffffffffffffffffffffffffff16611603836108cd565b73ffffffffffffffffffffffffffffffffffffffff167f8c5be1e5ebec7d5bd14f71427d1e84f3dd0314c0f7b2291e5b200ac8c7c3b92560405160405180910390a45050565b60006116548261151c565b611693576040517f08c379a000000000000000000000000000000000000000000000000000000000815260040161168a90613797565b60405180910390fd5b600061169e836108cd565b90508073ffffffffffffffffffffffffffffffffffffffff168473ffffffffffffffffffffffffffffffffffffffff16148061170d57508373ffffffffffffffffffffffffffffffffffffffff166116f584610567565b73ffffffffffffffffffffffffffffffffffffffff16145b8061171e575061171d818561129d565b5b91505092915050565b8273ffffffffffffffffffffffffffffffffffffffff16611747826108cd565b73ffffffffffffffffffffffffffffffffffffffff161461179d576040517f08c379a000000000000000000000000000000000000000000000000000000000815260040161179490613877565b60405180910390fd5b600073ffffffffffffffffffffffffffffffffffffffff168273ffffffffffffffffffffffffffffffffffffffff16141561180d576040517f08c379a000000000000000000000000000000000000000000000000000000000815260040161180490613757565b60405180910390fd5b611818838383611dfc565b611823600082611590565b6001600460008573ffffffffffffffffffffffffffffffffffffffff1673ffffffffffffffffffffffffffffffffffffffff16815260200190815260200160002060008282546118739190613b5c565b925050819055506001600460008473ffffffffffffffffffffffffffffffffffffffff1673ffffffffffffffffffffffffffffffffffffffff16815260200190815260200160002060008282546118ca9190613ad5565b92505081905550816003600083815260200190815260200160002060006101000a81548173ffffffffffffffffffffffffffffffffffffffff021916908373ffffffffffffffffffffffffffffffffffffffff160217905550808273ffffffffffffffffffffffffffffffffffffffff168473ffffffffffffffffffffffffffffffffffffffff167fddf252ad1be2c89b69c2b068fc378daa952ba7f163c4a11628f55a4df523b3ef60405160405180910390a4505050565b60008060009054906101000a900473ffffffffffffffffffffffffffffffffffffffff169050816000806101000a81548173ffffffffffffffffffffffffffffffffffffffff021916908373ffffffffffffffffffffffffffffffffffffffff1602179055508173ffffffffffffffffffffffffffffffffffffffff168173ffffffffffffffffffffffffffffffffffffffff167f8be0079c531659141344cd1fd0a4f28419497f9722a3daafe3b4186f6b6457e060405160405180910390a35050565b600080611a538461097f565b905060008190505b6000811115611b22576000600182611a739190613b5c565b90506000611a818783610771565b905060008880519060200120600c6000848152602001908152602001600020604051611aad919061359f565b604051809103902014905060008780519060200120600d6000858152602001908152602001600020604051611ae2919061359f565b6040518091039020149050818015611af75750805b15611b0b5760019650505050505050611b29565b505050508080611b1a90613c46565b915050611a5b565b5060009150505b9392505050565b600081600001549050919050565b6001816000016000828254019250508190555050565b611b6e828260405180602001604052806000815250611f10565b5050565b611b7d848484611727565b611b8984848484611f6b565b611bc8576040517f08c379a0000000000000000000000000000000000000000000000000000000008152600401611bbf906136f7565b60405180910390fd5b50505050565b606060405180602001604052806000815250905090565b60606000821415611c2d576040518060400160405280600181526020017f30000000000000000000000000000000000000000000000000000000000000008152509050611d8d565b600082905060005b60008214611c5f578080611c4890613ca2565b915050600a82611c589190613b2b565b9150611c35565b60008167ffffffffffffffff811115611ca1577f4e487b7100000000000000000000000000000000000000000000000000000000600052604160045260246000fd5b6040519080825280601f01601f191660200182016040528015611cd35781602001600182028036833780820191505090505b5090505b60008514611d8657600182611cec9190613b5c565b9150600a85611cfb9190613ceb565b6030611d079190613ad5565b60f81b818381518110611d43577f4e487b7100000000000000000000000000000000000000000000000000000000600052603260045260246000fd5b60200101907effffffffffffffffffffffffffffffffffffffffffffffffffffffffffffff1916908160001a905350600a85611d7f9190613b2b565b9450611cd7565b8093505050505b919050565b60007f01ffc9a7000000000000000000000000000000000000000000000000000000007bffffffffffffffffffffffffffffffffffffffffffffffffffffffff1916827bffffffffffffffffffffffffffffffffffffffffffffffffffffffff1916149050919050565b611e07838383612102565b600073ffffffffffffffffffffffffffffffffffffffff168373ffffffffffffffffffffffffffffffffffffffff161415611e4a57611e4581612107565b611e89565b8173ffffffffffffffffffffffffffffffffffffffff168373ffffffffffffffffffffffffffffffffffffffff1614611e8857611e878382612150565b5b5b600073ffffffffffffffffffffffffffffffffffffffff168273ffffffffffffffffffffffffffffffffffffffff161415611ecc57611ec7816122bd565b611f0b565b8273ffffffffffffffffffffffffffffffffffffffff168273ffffffffffffffffffffffffffffffffffffffff1614611f0a57611f098282612400565b5b5b505050565b611f1a838361247f565b611f276000848484611f6b565b611f66576040517f08c379a0000000000000000000000000000000000000000000000000000000008152600401611f5d906136f7565b60405180910390fd5b505050565b6000611f8c8473ffffffffffffffffffffffffffffffffffffffff1661264d565b156120f5578373ffffffffffffffffffffffffffffffffffffffff1663150b7a02611fb5611588565b8786866040518563ffffffff1660e01b8152600401611fd7949392919061360c565b602060405180830381600087803b158015611ff157600080fd5b505af192505050801561202257506040513d601f19601f8201168201806040525081019061201f9190612aee565b60015b6120a5573d8060008114612052576040519150601f19603f3d011682016040523d82523d6000602084013e612057565b606091505b5060008151141561209d576040517f08c379a0000000000000000000000000000000000000000000000000000000008152600401612094906136f7565b60405180910390fd5b805181602001fd5b63150b7a0260e01b7bffffffffffffffffffffffffffffffffffffffffffffffffffffffff1916817bffffffffffffffffffffffffffffffffffffffffffffffffffffffff1916149150506120fa565b600190505b949350505050565b505050565b600980549050600a600083815260200190815260200160002081905550600981908060018154018082558091505060019003906000526020600020016000909190919091505550565b6000600161215d8461097f565b6121679190613b5c565b905060006008600084815260200190815260200160002054905081811461224c576000600760008673ffffffffffffffffffffffffffffffffffffffff1673ffffffffffffffffffffffffffffffffffffffff168152602001908152602001600020600084815260200190815260200160002054905080600760008773ffffffffffffffffffffffffffffffffffffffff1673ffffffffffffffffffffffffffffffffffffffff168152602001908152602001600020600084815260200190815260200160002081905550816008600083815260200190815260200160002081905550505b6008600084815260200190815260200160002060009055600760008573ffffffffffffffffffffffffffffffffffffffff1673ffffffffffffffffffffffffffffffffffffffff16815260200190815260200160002060008381526020019081526020016000206000905550505050565b600060016009805490506122d19190613b5c565b90506000600a6000848152602001908152602001600020549050600060098381548110612327577f4e487b7100000000000000000000000000000000000000000000000000000000600052603260045260246000fd5b90600052602060002001549050806009838154811061236f577f4e487b7100000000000000000000000000000000000000000000000000000000600052603260045260246000fd5b906000526020600020018190555081600a600083815260200190815260200160002081905550600a60008581526020019081526020016000206000905560098054806123e4577f4e487b7100000000000000000000000000000000000000000000000000000000600052603160045260246000fd5b6001900381819060005260206000200160009055905550505050565b600061240b8361097f565b905081600760008573ffffffffffffffffffffffffffffffffffffffff1673ffffffffffffffffffffffffffffffffffffffff168152602001908152602001600020600083815260200190815260200160002081905550806008600084815260200190815260200160002081905550505050565b600073ffffffffffffffffffffffffffffffffffffffff168273ffffffffffffffffffffffffffffffffffffffff1614156124ef576040517f08c379a00000000000000000000000000000000000000000000000000000000081526004016124e690613817565b60405180910390fd5b6124f88161151c565b15612538576040517f08c379a000000000000000000000000000000000000000000000000000000000815260040161252f90613737565b60405180910390fd5b61254460008383611dfc565b6001600460008473ffffffffffffffffffffffffffffffffffffffff1673ffffffffffffffffffffffffffffffffffffffff16815260200190815260200160002060008282546125949190613ad5565b92505081905550816003600083815260200190815260200160002060006101000a81548173ffffffffffffffffffffffffffffffffffffffff021916908373ffffffffffffffffffffffffffffffffffffffff160217905550808273ffffffffffffffffffffffffffffffffffffffff16600073ffffffffffffffffffffffffffffffffffffffff167fddf252ad1be2c89b69c2b068fc378daa952ba7f163c4a11628f55a4df523b3ef60405160405180910390a45050565b600080823b905060008111915050919050565b82805461266c90613c70565b90600052602060002090601f01602090048101928261268e57600085556126d5565b82601f106126a757805160ff19168380011785556126d5565b828001600101855582156126d5579182015b828111156126d45782518255916020019190600101906126b9565b5b5090506126e29190612700565b5090565b604051806040016040528060008152602001606081525090565b5b80821115612719576000816000905550600101612701565b5090565b600061273061272b84613963565b613932565b9050808382526020820190508260005b858110156127705781358501612756888261289e565b845260208401935060208301925050600181019050612740565b5050509392505050565b600061278d6127888461398f565b613932565b9050828152602081018484840111156127a557600080fd5b6127b0848285613c04565b509392505050565b60006127cb6127c6846139bf565b613932565b9050828152602081018484840111156127e357600080fd5b6127ee848285613c04565b509392505050565b60008135905061280581613de9565b92915050565b600082601f83011261281c57600080fd5b813561282c84826020860161271d565b91505092915050565b60008135905061284481613e00565b92915050565b60008135905061285981613e17565b92915050565b60008151905061286e81613e17565b92915050565b600082601f83011261288557600080fd5b813561289584826020860161277a565b91505092915050565b600082601f8301126128af57600080fd5b81356128bf8482602086016127b8565b91505092915050565b6000813590506128d781613e2e565b92915050565b6000602082840312156128ef57600080fd5b60006128fd848285016127f6565b91505092915050565b6000806040838503121561291957600080fd5b6000612927858286016127f6565b9250506020612938858286016127f6565b9150509250929050565b60008060006060848603121561295757600080fd5b6000612965868287016127f6565b9350506020612976868287016127f6565b9250506040612987868287016128c8565b9150509250925092565b600080600080608085870312156129a757600080fd5b60006129b5878288016127f6565b94505060206129c6878288016127f6565b93505060406129d7878288016128c8565b925050606085013567ffffffffffffffff8111156129f457600080fd5b612a0087828801612874565b91505092959194509250565b60008060408385031215612a1f57600080fd5b6000612a2d858286016127f6565b9250506020612a3e85828601612835565b9150509250929050565b60008060408385031215612a5b57600080fd5b6000612a69858286016127f6565b9250506020612a7a858286016128c8565b9150509250929050565b600060208284031215612a9657600080fd5b600082013567ffffffffffffffff811115612ab057600080fd5b612abc8482850161280b565b91505092915050565b600060208284031215612ad757600080fd5b6000612ae58482850161284a565b91505092915050565b600060208284031215612b0057600080fd5b6000612b0e8482850161285f565b91505092915050565b600080600060608486031215612b2c57600080fd5b600084013567ffffffffffffffff811115612b4657600080fd5b612b528682870161289e565b9350506020612b63868287016127f6565b925050604084013567ffffffffffffffff811115612b8057600080fd5b612b8c8682870161289e565b9150509250925092565b600060208284031215612ba857600080fd5b6000612bb6848285016128c8565b91505092915050565b6000612bcb8383612c6b565b905092915050565b6000612bdf8383613544565b905092915050565b612bf081613b90565b82525050565b6000612c0182613a24565b612c0b8185613a6a565b935083602082028501612c1d856139ef565b8060005b85811015612c595784840389528151612c3a8582612bbf565b9450612c4583613a50565b925060208a01995050600181019050612c21565b50829750879550505050505092915050565b6000612c7682613a2f565b612c808185613a7b565b935083602082028501612c92856139ff565b8060005b85811015612cce5784840389528151612caf8582612bd3565b9450612cba83613a5d565b925060208a01995050600181019050612c96565b50829750879550505050505092915050565b612ce981613ba2565b82525050565b6000612cfa82613a3a565b612d048185613a8c565b9350612d14818560208601613c13565b612d1d81613dd8565b840191505092915050565b60008154612d3581613c70565b612d3f8186613a9d565b94506001821660008114612d5a5760018114612d6b57612d9e565b60ff19831686528186019350612d9e565b612d7485613a0f565b60005b83811015612d9657815481890152600182019150602081019050612d77565b838801955050505b50505092915050565b6000612db282613a45565b612dbc8185613aa8565b9350612dcc818560208601613c13565b612dd581613dd8565b840191505092915050565b6000612deb82613a45565b612df58185613ab9565b9350612e05818560208601613c13565b612e0e81613dd8565b840191505092915050565b6000612e2482613a45565b612e2e8185613aca565b9350612e3e818560208601613c13565b80840191505092915050565b6000612e57603083613ab9565b91507f54686520746f6b656e2068617320616c7265616479206265656e20637265617460008301527f656420666f7220746861742074797065000000000000000000000000000000006020830152604082019050919050565b6000612ebd602b83613ab9565b91507f455243373231456e756d657261626c653a206f776e657220696e646578206f7560008301527f74206f6620626f756e64730000000000000000000000000000000000000000006020830152604082019050919050565b6000612f23603283613ab9565b91507f4552433732313a207472616e7366657220746f206e6f6e20455243373231526560008301527f63656976657220696d706c656d656e74657200000000000000000000000000006020830152604082019050919050565b6000612f89602683613ab9565b91507f4f776e61626c653a206e6577206f776e657220697320746865207a65726f206160008301527f64647265737300000000000000000000000000000000000000000000000000006020830152604082019050919050565b6000612fef601c83613ab9565b91507f4552433732313a20746f6b656e20616c7265616479206d696e746564000000006000830152602082019050919050565b600061302f602483613ab9565b91507f4552433732313a207472616e7366657220746f20746865207a65726f2061646460008301527f72657373000000000000000000000000000000000000000000000000000000006020830152604082019050919050565b6000613095601983613ab9565b91507f4552433732313a20617070726f766520746f2063616c6c6572000000000000006000830152602082019050919050565b60006130d5602c83613ab9565b91507f4552433732313a206f70657261746f7220717565727920666f72206e6f6e657860008301527f697374656e7420746f6b656e00000000000000000000000000000000000000006020830152604082019050919050565b600061313b603883613ab9565b91507f4552433732313a20617070726f76652063616c6c6572206973206e6f74206f7760008301527f6e6572206e6f7220617070726f76656420666f7220616c6c00000000000000006020830152604082019050919050565b60006131a1602a83613ab9565b91507f4552433732313a2062616c616e636520717565727920666f7220746865207a6560008301527f726f2061646472657373000000000000000000000000000000000000000000006020830152604082019050919050565b6000613207602983613ab9565b91507f4552433732313a206f776e657220717565727920666f72206e6f6e657869737460008301527f656e7420746f6b656e00000000000000000000000000000000000000000000006020830152604082019050919050565b600061326d602083613ab9565b91507f4552433732313a206d696e7420746f20746865207a65726f20616464726573736000830152602082019050919050565b60006132ad602c83613ab9565b91507f4552433732313a20617070726f76656420717565727920666f72206e6f6e657860008301527f697374656e7420746f6b656e00000000000000000000000000000000000000006020830152604082019050919050565b6000613313602083613ab9565b91507f4f776e61626c653a2063616c6c6572206973206e6f7420746865206f776e65726000830152602082019050919050565b6000613353602983613ab9565b91507f4552433732313a207472616e73666572206f6620746f6b656e2074686174206960008301527f73206e6f74206f776e00000000000000000000000000000000000000000000006020830152604082019050919050565b60006133b9602f83613ab9565b91507f4552433732314d657461646174613a2055524920717565727920666f72206e6f60008301527f6e6578697374656e7420746f6b656e00000000000000000000000000000000006020830152604082019050919050565b600061341f602183613ab9565b91507f4552433732313a20617070726f76616c20746f2063757272656e74206f776e6560008301527f72000000000000000000000000000000000000000000000000000000000000006020830152604082019050919050565b6000613485603183613ab9565b91507f4552433732313a207472616e736665722063616c6c6572206973206e6f74206f60008301527f776e6572206e6f7220617070726f7665640000000000000000000000000000006020830152604082019050919050565b60006134eb602c83613ab9565b91507f455243373231456e756d657261626c653a20676c6f62616c20696e646578206f60008301527f7574206f6620626f756e647300000000000000000000000000000000000000006020830152604082019050919050565b600060408301600083015161355c6000860182613581565b50602083015184820360208601526135748282612da7565b9150508091505092915050565b61358a81613bfa565b82525050565b61359981613bfa565b82525050565b60006135ab8284612d28565b915081905092915050565b60006135c28284612e19565b915081905092915050565b60006135d98285612e19565b91506135e58284612e19565b91508190509392505050565b60006020820190506136066000830184612be7565b92915050565b60006080820190506136216000830187612be7565b61362e6020830186612be7565b61363b6040830185613590565b818103606083015261364d8184612cef565b905095945050505050565b600060208201905081810360008301526136728184612bf6565b905092915050565b600060208201905061368f6000830184612ce0565b92915050565b600060208201905081810360008301526136af8184612de0565b905092915050565b600060208201905081810360008301526136d081612e4a565b9050919050565b600060208201905081810360008301526136f081612eb0565b9050919050565b6000602082019050818103600083015261371081612f16565b9050919050565b6000602082019050818103600083015261373081612f7c565b9050919050565b6000602082019050818103600083015261375081612fe2565b9050919050565b6000602082019050818103600083015261377081613022565b9050919050565b6000602082019050818103600083015261379081613088565b9050919050565b600060208201905081810360008301526137b0816130c8565b9050919050565b600060208201905081810360008301526137d08161312e565b9050919050565b600060208201905081810360008301526137f081613194565b9050919050565b60006020820190508181036000830152613810816131fa565b9050919050565b6000602082019050818103600083015261383081613260565b9050919050565b60006020820190508181036000830152613850816132a0565b9050919050565b6000602082019050818103600083015261387081613306565b9050919050565b6000602082019050818103600083015261389081613346565b9050919050565b600060208201905081810360008301526138b0816133ac565b9050919050565b600060208201905081810360008301526138d081613412565b9050919050565b600060208201905081810360008301526138f081613478565b9050919050565b60006020820190508181036000830152613910816134de565b9050919050565b600060208201905061392c6000830184613590565b92915050565b6000604051905081810181811067ffffffffffffffff8211171561395957613958613da9565b5b8060405250919050565b600067ffffffffffffffff82111561397e5761397d613da9565b5b602082029050602081019050919050565b600067ffffffffffffffff8211156139aa576139a9613da9565b5b601f19601f8301169050602081019050919050565b600067ffffffffffffffff8211156139da576139d9613da9565b5b601f19601f8301169050602081019050919050565b6000819050602082019050919050565b6000819050602082019050919050565b60008190508160005260206000209050919050565b600081519050919050565b600081519050919050565b600081519050919050565b600081519050919050565b6000602082019050919050565b6000602082019050919050565b600082825260208201905092915050565b600082825260208201905092915050565b600082825260208201905092915050565b600081905092915050565b600082825260208201905092915050565b600082825260208201905092915050565b600081905092915050565b6000613ae082613bfa565b9150613aeb83613bfa565b9250827fffffffffffffffffffffffffffffffffffffffffffffffffffffffffffffffff03821115613b2057613b1f613d1c565b5b828201905092915050565b6000613b3682613bfa565b9150613b4183613bfa565b925082613b5157613b50613d4b565b5b828204905092915050565b6000613b6782613bfa565b9150613b7283613bfa565b925082821015613b8557613b84613d1c565b5b828203905092915050565b6000613b9b82613bda565b9050919050565b60008115159050919050565b60007fffffffff0000000000000000000000000000000000000000000000000000000082169050919050565b600073ffffffffffffffffffffffffffffffffffffffff82169050919050565b6000819050919050565b82818337600083830152505050565b60005b83811015613c31578082015181840152602081019050613c16565b83811115613c40576000848401525b50505050565b6000613c5182613bfa565b91506000821415613c6557613c64613d1c565b5b600182039050919050565b60006002820490506001821680613c8857607f821691505b60208210811415613c9c57613c9b613d7a565b5b50919050565b6000613cad82613bfa565b91507fffffffffffffffffffffffffffffffffffffffffffffffffffffffffffffffff821415613ce057613cdf613d1c565b5b600182019050919050565b6000613cf682613bfa565b9150613d0183613bfa565b925082613d1157613d10613d4b565b5b828206905092915050565b7f4e487b7100000000000000000000000000000000000000000000000000000000600052601160045260246000fd5b7f4e487b7100000000000000000000000000000000000000000000000000000000600052601260045260246000fd5b7f4e487b7100000000000000000000000000000000000000000000000000000000600052602260045260246000fd5b7f4e487b7100000000000000000000000000000000000000000000000000000000600052604160045260246000fd5b6000601f19601f8301169050919050565b613df281613b90565b8114613dfd57600080fd5b50565b613e0981613ba2565b8114613e1457600080fd5b50565b613e2081613bae565b8114613e2b57600080fd5b50565b613e3781613bfa565b8114613e4257600080fd5b5056fea26469706673582212203e6f60646c30708f87a91438daf918bea0b36fe2219dacaa6a50bda2d993789e64736f6c63430008000033",
  "linkReferences": {},
  "deployedLinkReferences": {}
}